{
  "contractName": "Redpack",
  "abi": [
    {
      "constant": true,
      "inputs": [
        {
          "name": "",
          "type": "uint256"
        }
      ],
      "name": "playerInfo",
      "outputs": [
        {
          "name": "id",
          "type": "uint256"
        },
        {
          "name": "owner",
          "type": "address"
        },
        {
          "name": "amount",
          "type": "uint256"
        },
        {
          "name": "balance",
          "type": "uint256"
        },
        {
          "name": "count",
          "type": "uint256"
        },
        {
          "name": "amountPerPack",
          "type": "uint256"
        },
        {
          "name": "isRandom",
          "type": "bool"
        },
        {
          "name": "randomFactor",
          "type": "uint256"
        }
      ],
      "payable": false,
      "stateMutability": "view",
      "type": "function"
    },
    {
      "constant": true,
      "inputs": [],
      "name": "maxPackAmount",
      "outputs": [
        {
          "name": "",
          "type": "uint256"
        }
      ],
      "payable": false,
      "stateMutability": "view",
      "type": "function"
    },
    {
      "constant": true,
      "inputs": [],
      "name": "minPackAmount",
      "outputs": [
        {
          "name": "",
          "type": "uint256"
        }
      ],
      "payable": false,
      "stateMutability": "view",
      "type": "function"
    },
    {
      "constant": true,
      "inputs": [],
      "name": "numberOfPlayers",
      "outputs": [
        {
          "name": "",
          "type": "uint256"
        }
      ],
      "payable": false,
      "stateMutability": "view",
      "type": "function"
    },
    {
      "constant": true,
      "inputs": [],
      "name": "LIMIT_AMOUNT_OF_PACK",
      "outputs": [
        {
          "name": "",
          "type": "uint256"
        }
      ],
      "payable": false,
      "stateMutability": "view",
      "type": "function"
    },
    {
      "constant": true,
      "inputs": [],
      "name": "owner",
      "outputs": [
        {
          "name": "",
          "type": "address"
        }
      ],
      "payable": false,
      "stateMutability": "view",
      "type": "function"
    },
    {
      "constant": true,
      "inputs": [],
      "name": "totalPackAmounts",
      "outputs": [
        {
          "name": "",
          "type": "uint256"
        }
      ],
      "payable": false,
      "stateMutability": "view",
      "type": "function"
    },
    {
      "constant": true,
      "inputs": [],
      "name": "minPackCount",
      "outputs": [
        {
          "name": "",
          "type": "uint256"
        }
      ],
      "payable": false,
      "stateMutability": "view",
      "type": "function"
    },
    {
      "constant": true,
      "inputs": [
        {
          "name": "",
          "type": "uint256"
        }
      ],
      "name": "players",
      "outputs": [
        {
          "name": "",
          "type": "address"
        }
      ],
      "payable": false,
      "stateMutability": "view",
      "type": "function"
    },
    {
      "constant": true,
      "inputs": [],
      "name": "maxPackCount",
      "outputs": [
        {
          "name": "",
          "type": "uint256"
        }
      ],
      "payable": false,
      "stateMutability": "view",
      "type": "function"
    },
    {
      "inputs": [
        {
          "name": "_token",
          "type": "address"
        }
      ],
      "payable": false,
      "stateMutability": "nonpayable",
      "type": "constructor"
    },
    {
      "payable": true,
      "stateMutability": "payable",
      "type": "fallback"
    },
    {
      "anonymous": false,
      "inputs": [
        {
          "indexed": false,
          "name": "id",
          "type": "uint256"
        }
      ],
      "name": "redpackCreated",
      "type": "event"
    },
    {
      "anonymous": false,
      "inputs": [
        {
          "indexed": false,
          "name": "amount",
          "type": "uint256"
        }
      ],
      "name": "redpackWithdraw",
      "type": "event"
    },
    {
      "anonymous": false,
      "inputs": [
        {
          "indexed": false,
          "name": "amount",
          "type": "uint256"
        }
      ],
      "name": "redpackGrabbed",
      "type": "event"
    },
    {
      "constant": false,
      "inputs": [],
      "name": "kill",
      "outputs": [],
      "payable": false,
      "stateMutability": "nonpayable",
      "type": "function"
    },
    {
      "constant": true,
      "inputs": [],
      "name": "getPlayerInfo",
      "outputs": [
        {
          "name": "nTotalPackAmounts",
          "type": "uint256"
        },
        {
          "name": "nNumberOfPlayers",
          "type": "uint256"
        },
        {
          "name": "playerList",
          "type": "address[]"
        }
      ],
      "payable": false,
      "stateMutability": "view",
      "type": "function"
    },
    {
      "constant": false,
      "inputs": [
        {
          "name": "count",
          "type": "uint256"
        },
        {
          "name": "value",
          "type": "uint256"
        }
      ],
      "name": "toll",
      "outputs": [],
      "payable": true,
      "stateMutability": "payable",
      "type": "function"
    },
    {
      "constant": false,
      "inputs": [
        {
          "name": "id",
          "type": "uint256"
        }
      ],
      "name": "withdrawBalance",
      "outputs": [],
      "payable": false,
      "stateMutability": "nonpayable",
      "type": "function"
    },
    {
      "constant": true,
      "inputs": [
        {
          "name": "id",
          "type": "uint256"
        }
      ],
      "name": "getPackInfo",
      "outputs": [
        {
          "name": "amount",
          "type": "uint256"
        },
        {
          "name": "balance",
          "type": "uint256"
        },
        {
          "name": "count",
          "type": "uint256"
        },
        {
          "name": "amountPerPack",
          "type": "uint256"
        },
        {
          "name": "isRandom",
          "type": "bool"
        }
      ],
      "payable": false,
      "stateMutability": "view",
      "type": "function"
    },
    {
      "constant": true,
      "inputs": [
        {
          "name": "_id",
          "type": "uint256"
        },
        {
          "name": "_hunter",
          "type": "address"
        }
      ],
      "name": "checkHunterExists",
      "outputs": [
        {
          "name": "",
          "type": "bool"
        }
      ],
      "payable": false,
      "stateMutability": "view",
      "type": "function"
    },
    {
      "constant": false,
      "inputs": [
        {
          "name": "id",
          "type": "uint256"
        }
      ],
      "name": "hunting",
      "outputs": [],
      "payable": true,
      "stateMutability": "payable",
      "type": "function"
    }
  ],
  "bytecode": "0x6080604052670de0b6b3a764000060015569021e19e0c9bab240000060025560016003556127106004556000600555600060065534801561003f57600080fd5b506040516020806118c983398101806040528101908080519060200190929190505050336000806101000a81548173ffffffffffffffffffffffffffffffffffffffff021916908373ffffffffffffffffffffffffffffffffffffffff16021790555080600860006101000a81548173ffffffffffffffffffffffffffffffffffffffff021916908373ffffffffffffffffffffffffffffffffffffffff160217905550506117d6806100f36000396000f3006080604052600436106100f1576000357c0100000000000000000000000000000000000000000000000000000000900463ffffffff168063188f3fbe146100f35780633e5a104b1461019557806341c0e1b5146101c05780634e40aa88146101d75780635d62648c146102025780636f4bda17146102225780638645bdb71461024d5780638da5cb5b14610278578063a0f1464f146102cf578063a294fbed146102f9578063d1df81df1461035e578063d5e6b49c146103d8578063da76d5cd14610439578063e068585614610466578063e864fb7c14610491578063f71d96cb146104bc578063fd9ba83414610529575b005b3480156100ff57600080fd5b5061011e60048036038101908080359060200190929190505050610554565b604051808981526020018873ffffffffffffffffffffffffffffffffffffffff1673ffffffffffffffffffffffffffffffffffffffff168152602001878152602001868152602001858152602001848152602001831515151581526020018281526020019850505050505050505060405180910390f35b3480156101a157600080fd5b506101aa6105c9565b6040518082815260200191505060405180910390f35b3480156101cc57600080fd5b506101d56105cf565b005b3480156101e357600080fd5b506101ec610660565b6040518082815260200191505060405180910390f35b61022060048036038101908080359060200190929190505050610666565b005b34801561022e57600080fd5b50610237610ac0565b6040518082815260200191505060405180910390f35b34801561025957600080fd5b50610262610ac6565b6040518082815260200191505060405180910390f35b34801561028457600080fd5b5061028d610ad4565b604051808273ffffffffffffffffffffffffffffffffffffffff1673ffffffffffffffffffffffffffffffffffffffff16815260200191505060405180910390f35b6102f76004803603810190808035906020019092919080359060200190929190505050610af9565b005b34801561030557600080fd5b5061034460048036038101908080359060200190929190803573ffffffffffffffffffffffffffffffffffffffff16906020019092919050505061101a565b604051808215151515815260200191505060405180910390f35b34801561036a57600080fd5b506103736110e6565b6040518084815260200183815260200180602001828103825283818151815260200191508051906020019060200280838360005b838110156103c25780820151818401526020810190506103a7565b5050505090500194505050505060405180910390f35b3480156103e457600080fd5b5061040360048036038101908080359060200190929190505050611186565b60405180868152602001858152602001848152602001838152602001821515151581526020019550505050505060405180910390f35b34801561044557600080fd5b50610464600480360381019080803590602001909291905050506111de565b005b34801561047257600080fd5b5061047b61153e565b6040518082815260200191505060405180910390f35b34801561049d57600080fd5b506104a6611544565b6040518082815260200191505060405180910390f35b3480156104c857600080fd5b506104e76004803603810190808035906020019092919050505061154a565b604051808273ffffffffffffffffffffffffffffffffffffffff1673ffffffffffffffffffffffffffffffffffffffff16815260200191505060405180910390f35b34801561053557600080fd5b5061053e611588565b6040518082815260200191505060405180910390f35b60096020528060005260406000206000915090508060000154908060010160009054906101000a900473ffffffffffffffffffffffffffffffffffffffff16908060020154908060030154908060040154908060050154908060060160009054906101000a900460ff16908060080154905088565b60025481565b6000809054906101000a900473ffffffffffffffffffffffffffffffffffffffff1673ffffffffffffffffffffffffffffffffffffffff163373ffffffffffffffffffffffffffffffffffffffff16141561065e576000809054906101000a900473ffffffffffffffffffffffffffffffffffffffff1673ffffffffffffffffffffffffffffffffffffffff16ff5b565b60015481565b600080600060096000858152602001908152602001600020600301541115156106f7576040517f08c379a00000000000000000000000000000000000000000000000000000000081526004018080602001828103825260108152602001807f7265647061636b20697320656d7074790000000000000000000000000000000081525060200191505060405180910390fd5b6009600084815260200190815260200160002060090180549050600960008581526020019081526020016000206004015411151561079d576040517f08c379a00000000000000000000000000000000000000000000000000000000081526004018080602001828103825260198152602001807f657863656564206e756d626572206f66207265647061636b730000000000000081525060200191505060405180910390fd5b6107a7833361101a565b15151561081c576040517f08c379a000000000000000000000000000000000000000000000000000000000815260040180806020018281038252600f8152602001807f616c72656164792067726162626564000000000000000000000000000000000081525060200191505060405180910390fd5b6009600084815260200190815260200160002060060160009054906101000a900460ff161561097157600960008481526020019081526020016000206009018054905091506009600084815260200190815260200160002060020154600960008581526020019081526020016000206007018381548110151561089b57fe5b90600052602060002001546009600086815260200190815260200160002060080154020290506009600084815260200190815260200160002060040154600160096000868152602001908152602001600020600901805490500110151561093d5761091c83600960008681526020019081526020016000206003015461158e565b6000600960008581526020019081526020016000206003018190555061096c565b610947838261158e565b8060096000858152602001908152602001600020600301600082825403925050819055505b610abb565b600960008481526020019081526020016000206005015460096000858152602001908152602001600020600301541115610a7d57600260096000858152602001908152602001600020600501540260096000858152602001908152602001600020600301541015610a1d576109fc83600960008681526020019081526020016000206003015461158e565b60006009600085815260200190815260200160002060030181905550610a78565b610a3d83600960008681526020019081526020016000206005015461158e565b600960008481526020019081526020016000206005015460096000858152602001908152602001600020600301600082825403925050819055505b610aba565b610a9d83600960008681526020019081526020016000206003015461158e565b600060096000858152602001908152602001600020600301819055505b5b505050565b60065481565b69152d02c7e14af680000081565b6000809054906101000a900473ffffffffffffffffffffffffffffffffffffffff1681565b600080600069152d02c7e14af68000008410158015610b22575069152d02c7e14af68000008411155b1515610b96576040517f08c379a000000000000000000000000000000000000000000000000000000000815260040180806020018281038252601c8152602001807f616d6f756e74206f7574206f662072616e676528312e2e31303030300000000081525060200191505060405180910390fd5b6003548510158015610baa57506004548511155b1515610c1e576040517f08c379a000000000000000000000000000000000000000000000000000000000815260040180806020018281038252601c8152602001807f6d696e206e756d20697320312c206d6178206e756d206973203130300000000081525060200191505060405180910390fd5b600654925083600960008581526020019081526020016000206002018190555083600960008581526020019081526020016000206003018190555084600960008581526020019081526020016000206004018190555060016009600085815260200190815260200160002060060160006101000a81548160ff02191690831515021790555082600960008581526020019081526020016000206000018190555060009150600090505b84811015610e1c576064423383604051602001808481526020018373ffffffffffffffffffffffffffffffffffffffff1673ffffffffffffffffffffffffffffffffffffffff166c0100000000000000000000000002815260140182815260200193505050506040516020818303038152906040526040518082805190602001908083835b602083101515610d715780518252602082019150602081019050602083039250610d4c565b6001836020036101000a038019825116818451168082178552505050505050905001915050604051809103902060019004811515610dab57fe5b066009600085815260200190815260200160002060070182815481101515610dcf57fe5b90600052602060002001819055506009600084815260200190815260200160002060070181815481101515610e0057fe5b9060005260206000200154820191508080600101915050610cc7565b816064811515610e2857fe5b0460096000858152602001908152602001600020600801819055508360056000828254019250508190555060066000815480929190600101919050555060073390806001815401808255809150509060018203906000526020600020016000909192909190916101000a81548173ffffffffffffffffffffffffffffffffffffffff021916908373ffffffffffffffffffffffffffffffffffffffff16021790555050600860009054906101000a900473ffffffffffffffffffffffffffffffffffffffff1673ffffffffffffffffffffffffffffffffffffffff166323b872dd3330876040518463ffffffff167c0100000000000000000000000000000000000000000000000000000000028152600401808473ffffffffffffffffffffffffffffffffffffffff1673ffffffffffffffffffffffffffffffffffffffff1681526020018373ffffffffffffffffffffffffffffffffffffffff1673ffffffffffffffffffffffffffffffffffffffff1681526020018281526020019350505050600060405180830381600087803b158015610fc457600080fd5b505af1158015610fd8573d6000803e3d6000fd5b505050507f387f6d1e283d5e4a591dd59940401557bfa1a885dc598ccae18a2d739498d316836040518082815260200191505060405180910390a15050505050565b600080600090505b60096000858152602001908152602001600020600901805490508110156110da578273ffffffffffffffffffffffffffffffffffffffff16600960008681526020019081526020016000206009018281548110151561107d57fe5b9060005260206000200160009054906101000a900473ffffffffffffffffffffffffffffffffffffffff1673ffffffffffffffffffffffffffffffffffffffff1614156110cd57600191506110df565b8080600101915050611022565b600091505b5092915050565b600080606060055460065460078080548060200260200160405190810160405280929190818152602001828054801561117457602002820191906000526020600020905b8160009054906101000a900473ffffffffffffffffffffffffffffffffffffffff1673ffffffffffffffffffffffffffffffffffffffff168152602001906001019080831161112a575b50505050509050925092509250909192565b60008060008060008060096000888152602001908152602001600020905080600201548160030154826004015483600501548460060160009054906101000a900460ff16955095509550955095505091939590929450565b6009600082815260200190815260200160002060010160009054906101000a900473ffffffffffffffffffffffffffffffffffffffff1673ffffffffffffffffffffffffffffffffffffffff163373ffffffffffffffffffffffffffffffffffffffff161415156112b7576040517f08c379a000000000000000000000000000000000000000000000000000000000815260040180806020018281038252600e8152602001807f6e6f7420746865206f776e65722e00000000000000000000000000000000000081525060200191505060405180910390fd5b60006009600083815260200190815260200160002060030154111515611345576040517f08c379a000000000000000000000000000000000000000000000000000000000815260040180806020018281038252600d8152602001807f62616c616e636520697320302e0000000000000000000000000000000000000081525060200191505060405180910390fd5b6005546009600083815260200190815260200160002060030154111515156113d5576040517f08c379a00000000000000000000000000000000000000000000000000000000081526004018080602001828103825260128152602001807f6e6f7420656e6f756768206275646765742e000000000000000000000000000081525060200191505060405180910390fd5b600860009054906101000a900473ffffffffffffffffffffffffffffffffffffffff1673ffffffffffffffffffffffffffffffffffffffff1663a9059cbb3360096000858152602001908152602001600020600301546040518363ffffffff167c0100000000000000000000000000000000000000000000000000000000028152600401808373ffffffffffffffffffffffffffffffffffffffff1673ffffffffffffffffffffffffffffffffffffffff16815260200182815260200192505050600060405180830381600087803b1580156114b057600080fd5b505af11580156114c4573d6000803e3d6000fd5b5050505060096000828152602001908152602001600020600301546005600082825403925050819055507f428e401f2eb017cce18a2c895dc33cd6c58314cd791214e96cd1143369cb6e2a60096000838152602001908152602001600020600301546040518082815260200191505060405180910390a150565b60055481565b60035481565b60078181548110151561155957fe5b906000526020600020016000915054906101000a900473ffffffffffffffffffffffffffffffffffffffff1681565b60045481565b6005548111151515611608576040517f08c379a00000000000000000000000000000000000000000000000000000000081526004018080602001828103825260188152602001807f677261623a206e6f7420656e6f756768206275646765742e000000000000000081525060200191505060405180910390fd5b600860009054906101000a900473ffffffffffffffffffffffffffffffffffffffff1673ffffffffffffffffffffffffffffffffffffffff1663a9059cbb33836040518363ffffffff167c0100000000000000000000000000000000000000000000000000000000028152600401808373ffffffffffffffffffffffffffffffffffffffff1673ffffffffffffffffffffffffffffffffffffffff16815260200182815260200192505050600060405180830381600087803b1580156116cd57600080fd5b505af11580156116e1573d6000803e3d6000fd5b5050505080600560008282540392505081905550600960008381526020019081526020016000206009013390806001815401808255809150509060018203906000526020600020016000909192909190916101000a81548173ffffffffffffffffffffffffffffffffffffffff021916908373ffffffffffffffffffffffffffffffffffffffff160217905550507f4e5f3fe5ac93c6f5c31989b385e3eb238bc744a671145ccd1a6951fd81aadb1d816040518082815260200191505060405180910390a150505600a165627a7a72305820fab012effa60f81148ce842e9f4a3ce5542d04ea3fe88ebddb721f481edc99630029",
  "source": "pragma solidity ^0.4.24;\r\n\r\ninterface IERC20 {\r\n    function transfer(address recipient, uint256 amount) external;\r\n    function balanceOf(address account) external view returns (uint256);\r\n    function transferFrom(address sender, address recipient, uint256 amount) external ;\r\n    function decimals() external view returns (uint8);\r\n}\r\n\r\n\r\n/// @title 红包合约\r\ncontract Redpack {\r\n    address public owner;\r\n\r\n    uint public minPackAmount = 1 * (10 ** 18); // 最低参与金额, 1 moac/mfc\r\n    uint public maxPackAmount = 10000 * (10 ** 18); // 最高参与金额, 10000 moac/mfc\r\n    uint public constant LIMIT_AMOUNT_OF_PACK = 100000 * (10 ** 18);\r\n\r\n    uint public minPackCount = 1; // 最少1个红包可抢\r\n    uint public maxPackCount = 10000; // 最多10000个红包可抢\r\n\r\n    uint public totalPackAmounts = 0; // 该合约的余额\r\n    uint public numberOfPlayers = 0; // 总的发红包数量\r\n    address[] public players; // 发红包的人的列表\r\n    // 指定aim token\r\n    IERC20 mytoken;\r\n\r\n    struct Player {\r\n        uint id; // 红包的id\r\n        address owner; // 红包创建者的地址\r\n        uint amount; // 红包里面塞钱塞了多少？\r\n        uint balance; // 红包余额\r\n        uint count; // 指定多少个红包数量\r\n        uint amountPerPack; // 如果是均分，则每个红包的金额\r\n        bool isRandom; // 指定是均分还是随机\r\n        uint[] randomAmount; // 随机分配时，先产生count个随机数\r\n        uint randomFactor; // 所有的随机数总和/count，用以计算最终的分配数\r\n        address[] hunterList; // 抢红包的地址列表\r\n        mapping(address => uint) hunterInfo; // 领取红包的人的列表：地址:数量\r\n    }\r\n\r\n    // 红包id到红包发红包人详细映射\r\n    mapping(uint => Player) public playerInfo;\r\n\r\n    // 这是为了人家发送币到合约地址的时候，收取\r\n    function() public payable {}\r\n    // event Received(address, uint);\r\n    // receive() external payable { // receive关键字是solidity 6.0引进的\r\n    //    emit Received(msg.sender, msg.value);\r\n    // }\r\n    // fallback() external payable;\r\n\r\n\r\n    /// @notice 构造函数\r\n    constructor (IERC20 _token) public {\r\n        owner = msg.sender;\r\n        mytoken=_token;\r\n    }\r\n\r\n    function kill() public {\r\n        if(msg.sender == owner) selfdestruct(owner);\r\n    }\r\n\r\n    /// @notice 总红包数\r\n    function getPlayerInfo() public view returns (\r\n        uint nTotalPackAmounts,\r\n        uint nNumberOfPlayers,\r\n        address[] playerList\r\n    ) {\r\n        return (\r\n        totalPackAmounts,\r\n        numberOfPlayers,\r\n        players\r\n        );\r\n    }\r\n\r\n    //********************************************************************/\r\n    // 创建红包\r\n    //********************************************************************/\r\n\r\n    event redpackCreated(uint id);\r\n    event redpackWithdraw(uint amount);\r\n\r\n    /// @notice 发红包充值\r\n    /// @param count 可抢多少个红包\r\n    function toll(uint count, uint value) public payable {\r\n        require(value >= LIMIT_AMOUNT_OF_PACK && value <= LIMIT_AMOUNT_OF_PACK, \"amount out of range(1..10000\");\r\n        require(count >= minPackCount && count <= maxPackCount, \"min num is 1, max num is 100\");\r\n\r\n        uint id = numberOfPlayers;\r\n        playerInfo[id].amount = value;\r\n        playerInfo[id].balance = value;\r\n        playerInfo[id].count = count;\r\n        playerInfo[id].isRandom = true;\r\n        playerInfo[id].id = id;\r\n        uint total = 0;\r\n        for (uint i = 0; i < count; i++) {\r\n            playerInfo[id].randomAmount[i] = uint(keccak256(abi.encodePacked(now, msg.sender, i))) % 100;\r\n            total += playerInfo[id].randomAmount[i];\r\n        }\r\n        playerInfo[id].randomFactor = 100 / total; // 随机数按照 百分比计算足够了。\r\n\r\n        totalPackAmounts += value;\r\n        numberOfPlayers++; // 创建的红包数量增加\r\n        players.push(msg.sender); // player列表增加\r\n        mytoken.transferFrom(msg.sender,address(this),value);\r\n        emit redpackCreated(id);\r\n    }\r\n\r\n    /// @notice 创建者提取余下的金额\r\n    /// @param id 红包的id\r\n    function withdrawBalance(uint id) public {\r\n        require(msg.sender == playerInfo[id].owner, \"not the owner.\");\r\n        require(playerInfo[id].balance > 0, \"balance is 0.\");\r\n        require(playerInfo[id].balance <= totalPackAmounts, \"not enough budget.\");\r\n\r\n        mytoken.transfer(msg.sender,playerInfo[id].balance);\r\n        totalPackAmounts -= playerInfo[id].balance;\r\n\r\n        emit redpackWithdraw(playerInfo[id].balance);\r\n    }\r\n\r\n    /// @notice 某个红包统计信息\r\n    /// @param id - 地址\r\n    // 红包创建时间\r\n    // 金额\r\n    // 随机 / 平均\r\n    // 个数\r\n    // 余额\r\n    // 已经抢了多少，还有多少\r\n    function getPackInfo(uint id) public view returns (\r\n        uint amount,\r\n        uint balance,\r\n        uint count,\r\n        uint amountPerPack,\r\n        bool isRandom\r\n    ) {\r\n        Player storage player = playerInfo[id];\r\n        return (\r\n        player.amount,\r\n        player.balance,\r\n        player.count,\r\n        player.amountPerPack,\r\n        player.isRandom\r\n        );\r\n    }\r\n\r\n    //********************************************************************/\r\n    // 抢红包\r\n    //********************************************************************/\r\n\r\n    event redpackGrabbed(uint amount);\r\n\r\n    /// @notice 检查地址是否已经抢过该红包了。\r\n    /// @param _id 哪一个红包\r\n    /// @param _hunter 哪一个抢红包的人\r\n    function checkHunterExists(uint _id, address _hunter) public view returns(bool) {\r\n        for (uint256 i = 0; i < playerInfo[_id].hunterList.length; i++){\r\n            if(playerInfo[_id].hunterList[i] == _hunter) return true;\r\n        }\r\n        return false;\r\n    }\r\n\r\n    /// @notice 抢红包。注意：抢完红包以后，抢的数据还保留着，以备查询\r\n    /// @param id 抢的是哪一个红包\r\n    function hunting(uint id) public payable {\r\n        // 先检查该红包有没有余额\r\n        require(playerInfo[id].balance > 0, \"redpack is empty\");\r\n        require(playerInfo[id].count > playerInfo[id].hunterList.length, \"exceed number of redpacks\");\r\n        require(!checkHunterExists(id, msg.sender), 'already grabbed');\r\n\r\n        if(playerInfo[id].isRandom) {\r\n            // 按照随机因子计算抢到的金额，这里可能有细微的误差\r\n            uint index = playerInfo[id].hunterList.length;\r\n            uint value = playerInfo[id].randomFactor * playerInfo[id].randomAmount[index] * playerInfo[id].amount;\r\n            if (playerInfo[id].hunterList.length + 1 >= playerInfo[id].count) {\r\n                // 考虑到计算的误差，最后一次抢红包，把余额全部发送出去\r\n                hunted(id, playerInfo[id].balance);\r\n                playerInfo[id].balance = 0;\r\n\r\n            } else {\r\n                hunted(id, value);\r\n                playerInfo[id].balance -= value;\r\n            }\r\n        } else {\r\n            // 考虑到计算的误差 (比如100块钱发给3个人红包平均分），最后一次抢红包，把余额全部发送出去\r\n            if (playerInfo[id].balance > playerInfo[id].amountPerPack) {\r\n                // 如果余额 > 1份，但是小于2份，则一次发送完毕\r\n                if (playerInfo[id].balance < playerInfo[id].amountPerPack * 2) {\r\n                    hunted(id, playerInfo[id].balance);\r\n                    playerInfo[id].balance = 0; // 发送完成，余额为0\r\n                } else {\r\n                    // 如果余额 > 2份，则发送一份\r\n                    hunted(id, playerInfo[id].amountPerPack);\r\n                    playerInfo[id].balance -= playerInfo[id].amountPerPack;\r\n                }\r\n            } else {\r\n                // 等于就是最后一个抢红包的人 （小于不可能）\r\n                hunted(id, playerInfo[id].balance);\r\n                playerInfo[id].balance = 0;\r\n            }\r\n        }\r\n    }\r\n    function hunted(uint _id, uint _amount) internal {\r\n        require(_amount <= totalPackAmounts, \"grab: not enough budget.\");\r\n        mytoken.transfer(msg.sender,_amount);\r\n        totalPackAmounts -= _amount;\r\n        playerInfo[_id].hunterList.push(msg.sender);\r\n\r\n        emit redpackGrabbed(_amount);\r\n    }\r\n}\r\n",
  "sourcePath": "E:\\blockchain\\truffle_test\\redpack_test\\contracts\\Redpack.sol",
  "compiler": {
    "name": "solc",
    "version": "0.4.24+commit.e67f0147.Emscripten.clang"
  },
  "schemaVersion": "3.4.3",
  "updatedAt": "2021-10-28T09:19:53.554Z",
  "devdoc": {
    "methods": {
      "checkHunterExists(uint256,address)": {
        "params": {
          "_hunter": "哪一个抢红包的人\r",
          "_id": "哪一个红包\r"
        }
      },
      "getPackInfo(uint256)": {
        "params": {
          "id": "- 地址\r"
        }
      },
      "hunting(uint256)": {
        "params": {
          "id": "抢的是哪一个红包\r"
        }
      },
      "toll(uint256,uint256)": {
        "params": {
          "count": "可抢多少个红包\r"
        }
      },
      "withdrawBalance(uint256)": {
        "params": {
          "id": "红包的id\r"
        }
      }
    },
    "title": "红包合约\r"
  },
  "userdoc": {
    "methods": {
      "checkHunterExists(uint256,address)": {
        "notice": "检查地址是否已经抢过该红包了。\r"
      },
      "getPackInfo(uint256)": {
        "notice": "某个红包统计信息\r"
      },
      "getPlayerInfo()": {
        "notice": "总红包数\r"
      },
      "hunting(uint256)": {
        "notice": "抢红包。注意：抢完红包以后，抢的数据还保留着，以备查询\r"
      },
      "toll(uint256,uint256)": {
        "notice": "发红包充值\r"
      },
      "withdrawBalance(uint256)": {
        "notice": "创建者提取余下的金额\r"
      }
    }
  }
}